:1000000002308A00712A0000FF00030E8301A10064
:100010000A08A0008A010408A2007708A300780853
:10002000A4007908A5007A08A600831383120B1E8A
:100030001B288B182C28220884002308F70024088A
:10004000F8002508F9002608FA0020088A00210E89
:100050008300FF0E7F0E09008A110A122F2801303B
:10006000AF00B00A8B108A110A121B283C308400A2
:1000700083130008031949280630F800F701F70B2D
:100080003F28F80B3E287B30F700F70B4528800B04
:100090003C2808008316051083120510C201803029
:1000A000C100C001BF01C008031D7C283F08073CF8
:1000B000031C7C283E084105C300C401C308031D7E
:1000C0006928C408031D69288316051183120511C8
:1000D0006D288316051183120515831605108312EA
:1000E000051483160510831205100310C20CC10CF1
:1000F000BF0A0319C00A532808008316851083120B
:1001000085103C08BE004A203D08BE004A208316E8
:10011000851083128514080000308316870083122F
:10012000B300331133088316870083120715643038
:10013000BC00362083168510831285100C30BE005B
:100140004A200130BE004A20831685108312851490
:1001500083168510831285100930BE004A200F30A7
:10016000BE004A20831685108312851483168510DD
:10017000831285100A30BE004A200F30BE004A208C
:1001800083168510831285148316851083128510BB
:100190000B30BE004A200330BE004A208316851073
:1001A0008312851483168510831285100F30BE00CC
:1001B0004A200130BE004A20831685108312851420
:1001C0006430BC00362083168510831285100F30F2
:1001D000BE004A20BE014A20831685108312851472
:1001E0001030BC000130BD007D200930BC00BD01D5
:1001F0007D200A30BC00BD017D200B30BC000F30DB
:10020000BD007D200C30BC000130BD007D208A1176
:100210000A129C2A003083168800FF308700831260
:10022000B3000030831686008511831285157F3058
:100230008800C0308B040B168316011383128A11B9
:100240000A129D2A0A30BC00362033163308831662
:1002500087008312071A2F290130F8004F29B315A0
:100260003308831687008312871939290430F80070
:100270004F29B3163308831687008312871A432940
:100280000330F8004F293317330883168700831291
:10029000071B4D290230F8004F290030F8000800F4
:1002A0000130BC003C30BD007D200830BC003C303B
:1002B000BD007D200230BC004230BD007D200730F3
:1002C000BC004230BD007D200230B6003608073C3D
:1002D000031C962902303602FA3E03189429063E82
:1002E0009A293608BC005230BD007D20942936087A
:1002F000BC00A530BD007D2094293608BC00A1308B
:10030000BD007D2094293608BC00A130BD007D20B1
:1003100094293608BC00A530BD007D2094293608FC
:10032000BC005230BD007D20B60A662922218A1108
:100330000A12662A0A148A100A118207712977297B
:100340007D29832989298F2986010130BC00FF304E
:10035000BD007D200830BC00FF30BD007D20023094
:10036000B6003608073C031CD9293608033A03199E
:10037000C029073A0319C629023A0319CC29D22900
:100380003608BC008530BD007D20D7293608BC006A
:10039000A130BD007D20D7293608BC008530BD00C6
:1003A0007D20D7293608BC008130BD007D20B60AEB
:1003B000B129B7013708093C031CE1292221B70AFA
:1003C000DA290230B8003808073C031C142A380820
:1003D000033A0319F529073A0319FB29013A0319CE
:1003E000012A033A0319072A0D2A3808BC00853070
:1003F000BD007D20122A3808BC00A130BD007D2040
:10040000122A3808BC00A130BD007D20122A38080D
:10041000BC008530BD007D20122A3808BC00813028
:10042000BD007D20B80AE329B9013908093C031C45
:100430001C2A2221B90A152A0230BA003A08073CC0
:10044000031C4F2A3A08033A0319302A073A0319C2
:10045000362A013A03193C2A033A0319422A482A48
:100460003A08BC00A530BD007D204D2A3A08BC00EA
:10047000A130BD007D204D2A3A08BC00A130BD004E
:100480007D204D2A3A08BC00A530BD007D204D2AB4
:100490003A08BC008130BD007D20BA0A1E2ABB018B
:1004A0003B08093C031C572A2221BB0A502A08009A
:1004B0003508320203186E2A2221F808031D662A25
:1004C0002708280429042A04860050292221F80834
:1004D00003196C2AA421B203B20A582A8A110A12FB
:1004E000AC2A03081F3983008030A7002030A80001
:1004F0000830A9000230AA004030AB001030AC0038
:100500000430AD000130AE00AF01B001B101B20165
:10051000FF30B300831603170908C039890003139D
:100520001F129F1200300317880083128701880171
:100530008901831303138C280A290130B40034087D
:10054000083C031CA92A3408BC00BD017D20B40A64
:100550009F2A3230B500582AA421AC2AA92A630068
:04400E00E22FFF3F5F
:00000001FF
;PIC16F887
;CRC=7260  CREATED="27-Jun-22 16:36"
