:1000000001308A00DC290000FF00030E8301A100FB
:100010000A08A0008A010408A2007708A300780853
:10002000A4007908A5007A08A600831383120B1E8A
:100030001B288B182C28220884002308F70024088A
:10004000F8002508F9002608FA0020088A00210E89
:100050008300FF0E7F0E09008A110A122F2801303B
:10006000AF00B00A8B108A110A121B2839308400A5
:1000700083130008031949280630F800F701F70B2D
:100080003F28F80B3E287B30F700F70B4528800B04
:100090003C2808008316051083120510BD0180302E
:1000A000BC00BB01BA01BB08031D7C283A08073C11
:1000B000031C7C2839083C05BE00BF01BE08031D97
:1000C0006928BF08031D69288316051183120511CD
:1000D0006D288316051183120515831605108312EA
:1000E000051483160510831205100310BD0CBC0CFB
:1000F000BA0A0319BB0A5328080083168510831215
:1001000085103708B9004A203808B9004A208316FC
:10011000851083128514080000308316870083122F
:10012000B10031113108831687008312071564303E
:10013000B900362083168510831285100C30B90063
:100140004A200130B9004A20831685108312851495
:1001500083168510831285100930B9004A200F30AC
:10016000B9004A20831685108312851483168510E2
:10017000831285100A30B9004A200F30B9004A2096
:1001800083168510831285148316851083128510BB
:100190000B30B9004A200330B9004A20831685107D
:1001A0008312851483168510831285100F30B900D1
:1001B0004A200130B9004A20831685108312851425
:1001C0006430B900362083168510831285100F30F5
:1001D000B9004A20B9014A2083168510831285147C
:1001E0001030B7000130B8007D200930B700B801E9
:1001F0007D200A30B700B8017D200B30B7000F30EA
:10020000B8007D200C30B7000130B8007D208A1185
:100210000A12052A003083168800FF3087008312F7
:10022000B1000030831686008511831285157F305A
:1002300088008701C0308B040B16831601138312CC
:100240008A110A12062AB8013708380203182D2924
:100250000A30B9003620B80A242908000130B70056
:10026000FF30B8007D200830B700FF30B8007D2097
:100270000230B3003308073C031C62293308033AF9
:1002800003194929073A03194F29023A0319552935
:100290005B293308B7008530B8007D20602933081A
:1002A000B700A130B8007D2060293308B700853041
:1002B000B8007D2060293308B7008130B8007D2068
:1002C000B30A3A290A30B70023210130B4003408B8
:1002D000633C031C6D29B40A67290230B500350858
:1002E000073C031CA0293508033A03198129073A62
:1002F00003198729013A03198D29033A0319932910
:1003000099293508B7008530B8007D209E29350829
:10031000B700A130B8007D209E293508B700A13074
:10032000B8007D209E293508B7008530B8007D20B3
:100330009E293508B7008130B8007D20B50A6F29A5
:100340000A30B70023210230B6003608073C031CF0
:10035000D6293608033A0319B729073A0319BD29E4
:10036000013A0319C329033A0319C929CF293608C9
:10037000B700A530B8007D20D4293608B700A130D9
:10038000B8007D20D4293608B700A130B8007D2000
:10039000D4293608B700A530B8007D20D429360806
:1003A000B7008130B8007D20B60AA5290A30B70011
:1003B00023218A110A12132A03081F39830080306F
:1003C000A7002030A8000830A9000230AA00403061
:1003D000AB001030AC000430AD000130AE00AF0116
:1003E000B001FF30B100831603170908C039890036
:1003F00003131F129F120030031788008312870116
:1004000088018901831303138C280A290130B20063
:100410003208083C031C122A3208B700B8017D20BC
:0A042000B20A082A2E29122A6300EE
:04400E00E22FFF3F5F
:00000001FF
;PIC16F887
;CRC=25DF  CREATED="26-Jun-22 23:43"
